:020000040800F2
:1000000000000220A5570008790C00087B0C0008AE
:100010007D0C00087F0C0008810C00080000000027
:100020000000000000000000000000005144000833
:10003000830C000800000000F1440008850C000853
:10004000F5570008F5570008F5570008F557000860
:10005000F5570008F5570008F5570008F557000850
:10006000F5570008F5570008F5570008F557000840
:10007000F5570008F5570008F5570008F557000830
:10008000F5570008F5570008F5570008F557000820
:10009000F5570008F5570008F5570008F557000810
:1000A000F5570008F5570008F5570008F557000800
:1000B000F5570008F5570008F5570008F5570008F0
:1000C000F5570008F5570008F5570008F5570008E0
:1000D000F5570008F5570008F5570008F5570008D0
:1000E000F5570008F5570008F5570008F5570008C0
:1000F000F5570008F5570008F5570008F5570008B0
:10010000F5570008F5570008F5570008F55700089F
:10011000F5570008F5570008F5570008F55700088F
:10012000F5570008F5570008F5570008F55700087F
:10013000F55700080000000000000000F557000817
:10014000F5570008F5570008F5570008990C000806
:10015000F5570008F5570008F5570008F55700084F
:10016000F5570008F5570008F5570008F55700083F
:10017000F5570008F55700080000000000000000D7
:08018000F5570008F5570008CF
:1001900010B5054C237833B9044B13B10448AFF3C1
:1001A00000800123237010BDFC000020000000002F
:1001B0006858000808B5034B1BB103490348AFF367
:1001C000008008BD00000000000100206858000801
:1001D00053B94AB9002908BF00281CBF4FF0FF31AE
:1001E0004FF0FF3000F072B9ADF1080C6DE904CEAC
:1001F00000F006F8DDF804E0DDE9022304B0704702
:100200002DE9F047089E04468846002B4BD18A42D0
:10021000154667D9B2FA82F24AB1C2F1200701FA53
:1002200002F320FA07F7954047EA030894404FEAA3
:10023000154E230CB8FBFEF71FFA85FC0EFB178842
:1002400043EA084307FB0CF1994209D9EB1807F17F
:10025000FF3080F01B81994240F21881023F2B440D
:100260005B1AA4B2B3FBFEF00EFB103344EA034466
:1002700000FB0CFCA44509D92C1900F1FF3380F0D8
:100280000781A44540F2048102382C4440EA07402B
:10029000A4EB0C0400271EB1D4400023C6E90043A0
:1002A0003946BDE8F0878B4209D9002E00F0EB807B
:1002B0000027C6E9000138463946BDE8F087B3FAA1
:1002C00083F7002F47D18B4202D3824200F2FA809B
:1002D000841A61EB030301209846002EE0D0C6E9A2
:1002E0000048DDE702B9FFDEB2FA82F2002A40F0F0
:1002F0008F80491B4FEA154E1FFA85F80127B1FB85
:10030000FEFC230C0EFB1C1143EA014308FB0CF11D
:10031000994207D9EB180CF1FF3002D2994200F252
:10032000CD808446591AA3B2B1FBFEF00EFB101427
:1003300043EA044408FB00F8A04507D92C1900F152
:10034000FF3302D2A04500F2B6801846A4EB0804A1
:1003500040EA0C409FE7C7F1200CBB4022FA0CFE9C
:100360004EEA030E01FA07F420FA0CF521FA0CF319
:100370004FEA1E482543B3FBF8F92C0C08FB193350
:100380001FFA8EFA44EA034309FB0AF49C4202FA7C
:1003900007F200FA07F10BD91EEB030309F1FF3056
:1003A00080F087809C4240F28480A9F10209734466
:1003B0001B1BADB2B3FBF8F008FB103345EA034456
:1003C00000FB0AFAA24508D91EEB040400F1FF3332
:1003D0006BD2A24569D90238744440EA0940A0FBB7
:1003E0000289A4EB0A044C45C2464B4654D351D073
:1003F000002E69D0B1EB0A0564EB030404FA0CFC8F
:10040000FD40FC404CEA0505C6E90054002747E7DB
:10041000C2F1200320FA03F7954001FA02F021FA15
:1004200003F34FEA154E3843010CB3FBFEF71FFAF6
:1004300085F80EFB173341EA034107FB08F38B42B3
:1004400004FA02F407D9691807F1FF3C2FD28B4256
:100450002DD9023F2944CB1A81B2B3FBFEF00EFB2B
:10046000103341EA034100FB08F38B4207D96918B6
:1004700000F1FF3C17D28B4215D902382944C91A22
:1004800040EA07473BE73746304609E70746E7E6D5
:100490001846FBE64145ABD2B8EB020A69EB0E0207
:1004A00001381346A4E76046E9E7184695E7674632
:1004B000D1E781467CE702382C4447E7ACF1020CD7
:1004C0002B442FE7384608E73746E9E6704700BF78
:1004D00084B000220192104B196B41F08001196326
:1004E000196B01F08001019101990292196B41F0A1
:1004F00002011963196B01F0020102910299039242
:100500001A6B42F001021A631B6B03F001030393A1
:10051000039B04B0704700BF0038024008B500F0EC
:100520007BF9012003F013FFFBE708B5012003F07E
:100530000EFFFBE708B5012003F009FFFBE708B554
:10054000012003F004FFFBE772B6FEE710B596B09A
:1005500000241294139414941594109411940994F3
:100560000A940B940C940D940E940F94202221461F
:1005700001A805F070F93948394B03604460846084
:100580004FF6FF73C36004614461846102F00EFEA4
:10059000002850D116A94FF4805341F8103D2F4840
:1005A00002F00CFF002848D12C4802F02AFE002857
:1005B00045D1702310930023119310A9274802F00E
:1005C00077FF00283DD16023099300220A920B9205
:1005D0000C920D920E920F9209A9204802F074FE1F
:1005E000002830D1042209A91C4802F06DFE60BB2E
:1005F000082209A9194802F067FE40BB16A970231A
:1006000041F8343D0C22154802F05EFE08BB002381
:10061000019302930393049305934FF400520692BF
:10062000089301A90D4802F087FFA0B90B4800F01C
:1006300075FB16B010BDFFF787FFFFF785FFFFF7CB
:1006400083FFFFF781FFFFF77FFFFFF77DFFFFF7D6
:100650007BFFFFF779FFFFF777FF00BF044600201D
:100660000000014000B595B03022002108A805F037
:10067000F2F80023039304930593069307930193E1
:10068000204A116C41F080511164126C02F08052CA
:100690000192019A02931C4B1A6842F480421A603C
:1006A0001B6803F480430293029B012308934FF4D9
:1006B0008033099302230E934FF480020F92042299
:1006C0001092A822119212930723139308A801F005
:1006D00065FF98B90F230393022304930023059326
:1006E0004FF4A05306934FF480530793052103A8BA
:1006F00002F0BCF920B915B05DF804FBFFF724FF48
:10070000FFF722FF003802400070004080B5A4B01F
:1007100002F0DCFBFFF7A6FFFFF7DAFEFFF716FF9C
:10072000002722972C4B239322A803F019FE2B4B72
:10073000186020972A4B2193012120A803F016FE70
:10074000284B1860284C1CAD94E80F0085E80F007A
:100750003946284603F01BFE244B186015AD04F102
:1007600010060FCE0FC596E8070085E8070039464A
:1007700015A803F0D2FD1E4B18600EAD04F12C0637
:100780000FCE0FC596E8070085E8070039460EA88A
:1007900003F0C3FD174B186007AD04F148060FCEF8
:1007A0000FC596E8070085E80700394607A803F05B
:1007B000B4FD114B18606D4664340FCC0FC594E83E
:1007C000070085E807003946684603F0A6FD0B4B95
:1007D000186003F09DFDFEE7D02400200087002074
:1007E000546600204C660020805800089C6600205B
:1007F000782500200046002050660020FC4500209F
:10080000034B0360034B0B604FF4006313607047AE
:10081000182100201801002008B500220F491048B7
:1008200003F052FF70B90F490D4803F064FF60B93F
:100830000D490B4804F075FF50B9094803F075FFE6
:1008400048B908BDFFF780FEEDE7FFF77DFEEFE753
:10085000FFF77AFEF1E7FFF777FEF2E700000020EE
:10086000ACA70020740000205000002030B589B0F3
:100870000023039304930593069307930368B3F14E
:10088000A04F01D009B030BD00250195164C236B57
:1008900043F001032363236B03F001030193019BE6
:1008A0004FF4C053039302230493032306930A23B4
:1008B000079303A90D4802F08FF9636B43F080039F
:1008C00063630295636C43F480436364636C03F475
:1008D00080430293029B2A460521432002F078FAC6
:1008E000432002F0A9FACDE70038024000000240A0
:1008F00008B500F29C41D0F8E00403F02CFF08BDDD
:1009000008B501EBC10293000344D3F86022D0F88C
:10091000E00403F0F2FF08BD08B501EBC10293004B
:1009200003441A6AD0F8E00404F053F808BD08B58F
:10093000D0F8E00403F08CFF08BD10B50446C3797D
:100940002BB1022B0DD0FFF7FFFD012100E00021AC
:10095000D4F8E00403F05DFFD4F8E00403F027FFCF
:1009600010BD0121F4E7000010B50446D0F8E00402
:1009700003F052FF2268D2F8003E43F00103C2F8B0
:10098000003EE37A23B1034A136943F0060313617F
:1009900010BD00BF00ED00E008B5D0F8E00403F0A2
:1009A0004AFF08BD08B5D0F8E00403F079FF08BDA0
:1009B00008B5D0F8E00403F05CFF08BD08B5D0F836
:1009C000E00403F084FF08BD08B5D0F8E00403F0AC
:1009D00080FF08BD03780BB10020704710B50346B7
:1009E0001548C0F8E034C3F8C8024FF0A0430360D4
:1009F000042303710222C271002383714272837245
:100A0000C37203738373C37300F034FA80B90A4C62
:100A10008021204600F0FBFF40220021204600F00C
:100A2000D2FF80220121204600F0CDFF002010BD22
:100A3000FFF78AFDEBE700BF88AA0020D0F8C83294
:100A400011F0800F08D101F07F0101EBC1018A0094
:100A5000134493F85602704701F07F0101EBC10186
:100A60008A001344987D704708B5D0F8C80200F09A
:100A7000FDFB08BD0048704778210020704718B181
:100A8000022803D0032070470020704701207047E0
:100A900008B5D0F8C80200F06CFAFFF7F0FF08BD07
:100AA00010B51C4613462246D0F8C80200F041FBA0
:100AB000FFF7E5FF10BD08B5D0F8C80200F079FBDC
:100AC000FFF7DDFF08BD08B5D0F8C80200F0F8FB5D
:100AD000FFF7D5FF08BD08B5D0F8C80200F030FC1C
:100AE000FFF7CDFF08BD08B5D0F8C80200F00EFB37
:100AF000FFF7C5FF08BD08B5D0F8C80200F0BFFB7E
:100B0000FFF7BDFF08BD08B5D0F8C80200F087FBAD
:100B1000FFF7B5FF08BD000012230B8000487047A7
:100B20001C00002004230B80004870473000002088
:100B30000023934216D230B40BE0373401F813404F
:100B400000015C00013400250D550133DBB29342F6
:100B500006D2040F092CF0D8303401F81340EFE727
:100B600030BC704770470000002000B9704710B5D6
:100B7000054C0822A11CFFF7DBFF042204F112013F
:100B80000020FFF7D5FF10BD3400002008B51A2360
:100B90000B80FFF7E9FF014808BD00BF34000020CB
:100BA00008B50A4628B10549054804F035FB034855
:100BB00008BD0249024804F02FFBF8E76CAF0020A3
:100BC0006059000810B5044C0A462146034804F059
:100BD00023FB204610BD00BF6CAF00204C5900081D
:100BE00008B50A4628B10549054804F015FB034835
:100BF00008BD0249024804F00FFBF8E76CAF002083
:100C00003059000808B50A4628B10549054804F0DE
:100C100003FB034808BD0249024804F0FDFAF8E767
:100C20006CAF00203C59000800207047002070473E
:100C30000020704710B5054C0146204604F08AFD9F
:100C4000204604F093FD002010BD00BFACA700209B
:100C500010B5064C00220649204604F06DFD0549FA
:100C6000204604F077FD002010BD00BFACA7002097
:100C70006CB900206CB10020FEE7FEE7FEE7FEE75E
:100C8000FEE7704708B502F03BF903F0D3FA0128FC
:100C900001D003F05FFC08BD08B5024800F0A1FBDD
:100CA00008BD00BF88AA002000B583B000220092D2
:100CB0000D4B596C41F480415964596C01F48041E9
:100CC000009100990192196C41F0805119641B6CDC
:100CD00003F080530193019B0F216FF0010002F09C
:100CE00077F803B05DF804FB003802400268094B56
:100CF0009A4200D0704782B000230193064B5A6C91
:100D000042F001025A645B6C03F001030193019B02
:100D100002B07047000001400038024070B588B052
:100D20000023039304930593069307930268194BDA
:100D30009A4201D008B070BD0024019403F59C33A1
:100D40001A6B42F002021A631A6B02F0020201925D
:100D5000019A02941A6B42F001021A631B6B03F0B2
:100D600001030293029B4FF460430393022604960F
:100D70000125079503A9084801F02EFF4FF4E06311
:100D80000393049605940694079503A9034801F07C
:100D900023FFCFE7000001400004024000000240B2
:100DA0002DE9F04782B00768CA000A449300034463
:100DB0009A6A5B6A9A4257D8B8469B1A01EBC104FB
:100DC000A2000244D2699A4200D31A460C46064653
:100DD00002F1030A4FEA9A0A16E009F1030A4FEA00
:100DE0009A0AE30023449D003544296AB3790093AD
:100DF0001FFA89F3E2B2384601F045F92B6A4B44F9
:100E00002B62AB6A4B44AB6208EB441303F51063EF
:100E10009B699BB2534513D3E30023449A003244A9
:100E2000916A536A99420BD253B15B1A04EBC40125
:100E30008A003244D2F81C909945CED39946CCE72B
:100E4000E300234498000644726AB36A9A420FD8BA
:100E500004F00F040121A140D7F8344824EA01042A
:100E6000C7F83448002000E0012002B0BDE8F08758
:100E70000020FAE730B583B0002878D00446056832
:100E800090F89534C3B1032384F89534B5F1A04F9D
:100E900017D0206800F0AAFE2068237C8DF800306F
:100EA000231D0ECB00F0DDFD70B1022384F89534D4
:100EB0000125284603B030BD80F89434FFF7D6FCF6
:100EC000E1E70023A371E4E70021206801F0F5FACF
:100ED00008B9002316E0022384F895340125E8E7D9
:100EE000D900C81882002244012050751375D3859B
:100EF00000201076D0611062CA1891002144486227
:100F00000133DBB225799D42EAD8002315E0D800F1
:100F1000C1188A002244002182F8551282F8543206
:100F200082F85812C2F85C12C2F86012C21890001F
:100F30002044C0F864120133DBB29D42E7D8206838
:100F4000237C8DF80030231D0ECB00F0A5FE054656
:100F500020B1022384F895340125AAE700236374A5
:100F6000012384F89534206801F064FAA1E7012593
:100F70009FE7036890F89424012A1AD010B5012243
:100F800080F89424DA6812F0400F02D0427B012AE4
:100F90000AD00446006800F023FE206801F03CFA05
:100FA000002084F8940410BD9A6B42F480329A6356
:100FB000EFE702207047000070B504460D46006858
:100FC000066C00EB411303F530639A68A17901299F
:100FD00011D038498E4256D03DB905EBC502930079
:100FE0002344D3F86432002B5ED0E9B22046FFF7E9
:100FF00087FC002070BD12F0080F09D02E498E42E8
:10100000F7D912F4004FF4D04FF400429A60F0E7A1
:1010100012F0200F2AD112F0280FEAD126498E4271
:1010200002D912F4004F24D1E90029448A00224455
:10103000D2F874121B69C3F31203CB1AC2F86832D8
:101040007DB905EBC5018A002244D2F86422A2B121
:10105000E90029448A002244D2F860120B44C2F805
:101060006032E9B22046FFF74BFCC2E720229A60CB
:10107000BFE74FF400429A60BBE704F29C420121B3
:1010800001F05CFAEDE712F4004F09D112F0200FE5
:1010900001D020229A60E9B22046FFF731FCA8E790
:1010A0004FF400429A60A4E704F29C42002101F050
:1010B00045FA9AE70A31544F0A30544F38B504467E
:1010C00003681D6C03EB4111D1F8082B0E4B9D42B8
:1010D00007D901F5306112F4004F02D04FF40043FC
:1010E0008B602046FFF704FC074B9D4202D9A37991
:1010F000012B01D0002038BD04F29C420121206860
:1011000001F01CFAF6E700BF0A30544F90F894340F
:10111000012B0CD010B50446012380F8943441749F
:10112000006801F069F9002084F8940410BD0220E1
:101130007047F8B511F0800F28D101F00F06F500C7
:10114000AF19BC00274604F51474044404343E4629
:101150000644002586F8555201F00F012170A26067
:101160002371627802B16183022B1DD090F8943410
:10117000012B1CD00546012380F8943421460068D9
:1011800000F067FE002085F89404F8BD01F00F061A
:10119000F500AF19BC0027461034044404343E4621
:1011A000064401257575D7E700236371DEE7022049
:1011B000EBE738B511F0800F21D101F00F05EA00FF
:1011C0005419A3001C4603F5147303440433254645
:1011D0000544002285F8552201F00F01197090F89E
:1011E0009424012A19D00446012280F89424194637
:1011F000006800F079FE002084F8940438BD01F006
:101200000F04E2001519AB001D46103303440433EC
:101210002C46044401226275DEE70220EEE770B539
:1012200001F00F05EE0071198C0004F514740444EC
:10123000211D2E44B40026460444C4F86022C4F89C
:1012400064320023C4F8683284F8553284F854526A
:101250008379012B05D01A46006800F029FF002091
:1012600070BD34460444C4F87022F4E701F00F0165
:1012700001EBC1018B001844D0F86802704770B5CB
:1012800001F00F05EE0071198C0010340444211D8B
:101290002E44B40026460444226263620023A36203
:1012A0000123637525758379012B05D01A460068E3
:1012B00000F0FEFE002070BD344604442263F5E7D2
:1012C00038B501F00F050379AB4235D311F0800F2B
:1012D00020D1CA005418A3001C4603F5147303441C
:1012E000043322460244002182F8551201229A70EA
:1012F0001D7090F89424012A20D00446012280F821
:1013000094241946006801F01CF875B1002084F897
:10131000940412E0EA0051198B001946103303447B
:101320000433014401224A75E0E704F29C42A179AA
:10133000206801F003F9E9E7012038BD0220FCE74D
:1013400010B501F00F040379A3422BD311F0800FE5
:101350001DD1E3001A1991000A4601F514710144E8
:1013600004310244002382F8553200238B700C7044
:1013700090F89434012B17D00446012380F894345C
:10138000006801F00BF8002084F894040BE0E300FF
:101390001A1991000A461031014404310244012314
:1013A0005375E2E7012010BD0220FCE708B511F0FB
:1013B000800F0CD101F00F0101EBC1018B0003F58F
:1013C000147101440431006800F0FCFD08BD01F017
:1013D0000F0101EBC1018B0003F110010144043145
:1013E000F1E72DE9F04F83B004460568284601F087
:1013F00060F810B103B0BDE8F08F2E4607462068B4
:1014000001F026F80028F5D005F5006ADAF8083072
:10141000C3F30D23C4F8D434206801F019F810F098
:10142000020F04D02268536903F00203536120685D
:1014300001F00EF810F0100F13D02268936923F01A
:1014400010039361D5F8208008F00F09C8F34343D7
:10145000022B4CD0062B71D02268936943F0100305
:101460009361206800F0F4FF10F4002F7AD1206817
:1014700000F0EEFF10F4802F40F0E580206800F0CF
:10148000E7FF0028C0F26881206800F0E1FF10F457
:10149000006F0AD0DAF8083013F0010F40F07681BF
:1014A0002268536903F400635361206800F0D0FFA1
:1014B00010F4805F40F06E81206800F0C9FF10F4E6
:1014C000005F40F0C581206800F0C2FF10F0080FF7
:1014D00040F0D681206800F0BBFF10F0800F00F0D4
:1014E000E981AB6923F08003AB610127D2E147F6C4
:1014F000F07318EA030FAFD04FEAC90301934B44CE
:101500004FEA830BA3444FEA1818C8F30A02DBF82A
:101510006012284600F0EEFEC8F30A08DBF86032DD
:101520004344CBF86032019A91444FEA8903234443
:10153000D3F868324344CBF868328DE7082204F2CE
:101540009C41284600F0D6FEC8F30A184FEAC903AA
:1015500003EB09018A002244D2F868324344C2F8FE
:10156000683279E7206800F077FF8046B94635E0B9
:1015700006EB49130122C3F8082B49462046FFF722
:101580001BFD3DE006EB49130822C3F8082B494632
:101590002046FFF793FD36E009EBC9029300234490
:1015A00093F85732012B44D006EB49130222C3F8BB
:1015B000082B1BF0200F04D006EB49132022C3F8A0
:1015C000082B1BF4005F05D006EB49134FF40052C3
:1015D000C3F8082B09F101094FEA5808B8F1000FC8
:1015E0003FF445AF18F0010FF4D05FFA89F301938F
:1015F0001946206800F040FF834610F0010FB7D174
:101600001BF0080FBED11BF0100F04D006EB4913DE
:101610001022C3F8082B1BF0020FCAD06B6913F01D
:10162000800FB9D0DAF8043043F48063CAF804308C
:10163000B2E793002344002283F857220199204601
:10164000FFF7B0F9B0E7206800F00EFF8046B9461A
:1016500025E001992046FFF75FF91BF0080F04D041
:1016600006EB49130822C3F808291BF0100F04D019
:1016700006EB49131022C3F808291BF0400F04D0D1
:1016800006EB49134022C3F808291BF0020F44D18E
:101690001BF0800F5BD109F101094FEA5808B8F13E
:1016A000000F3FF4EBAE18F0010FF4D05FFA89F3AE
:1016B00001931946206800F0E8FE834610F0010F00
:1016C000CBD009F00F03012101FA03F2DAF834302C
:1016D00023EA0203CAF8343006EB4913C3F80819A9
:1016E000A3798B42B5D14FEAC9024A4493002344FF
:1016F000D9691A6A0A441A62B9F1000FA9D109EB33
:10170000C902930023445B6A002BA2D104F29C42DD
:101710000121206800F012FF9BE74946284600F0AF
:101720006BFA09EBC90293002344DB7D012B05D042
:1017300006EB49130222C3F80829A9E793002344C2
:101740000022DA7501992046FFF732F9F0E74946A1
:101750002046FFF725FB9EE7DAF8043023F001036B
:10176000CAF8043094F8CC34012B08D02046FFF797
:1017700013F92268536903F00043536184E60021A2
:1017800084F8CC14204600F046F9F2E72046FFF733
:10179000EBF885E6DAF8043023F00103CAF80430E8
:1017A0001021206800F028FA1AE006EB47134FF6E4
:1017B0007F31C3F80819D3F8002922F40012C3F8C6
:1017C0000029C3F8081BD3F8002B22F40012C3F839
:1017D000002BD3F8002B42F00062C3F8002B013736
:1017E0002379BB42E1D8DAF81C3043F00113CAF880
:1017F0001C30E37BEBB1DAF8843043F00B03CAF81A
:101800008430DAF8443043F00B03CAF84430D5F89A
:10181000003823F4FE63C5F8003804F29C42A17935
:10182000206800F08BFE2268536903F480535361F3
:1018300042E6DAF8143043F4005343F02B03CAF8BD
:101840001430DAF8103043F00B03CAF81030DEE73A
:10185000206800F063FE206800F0EAFAE071276873
:1018600001F0B4F9E2790146384600F043F9204628
:10187000FFF763F82268536903F40053536122E6CB
:101880002046FFF754F82268536903F008035361B8
:1018900020E601372379BB420CD907EBC70293003E
:1018A000234493F85732012BF3D1F9B22046FFF7C6
:1018B0007DFDEEE7206800F0CBFD10F4801F38D1ED
:1018C000206800F0C5FD10F4001F6DD1206800F005
:1018D000BFFD10F0804F69D1206800F0B9FD10F015
:1018E000040F3FF487AD23685D6815F0040F66D1DF
:1018F000226853682B4353607CE593002344012204
:10190000DA7567F07F01C9B22046FFF74FFD013756
:101910002379BB420FD906EB4713D3F8001907EB25
:10192000C702930023441B7E012BF0D10029EEDA7D
:10193000E3E70127ECE72268536903F4801353615E
:10194000BEE7013322799A4228D906EB4312D2F836
:10195000000B03EBC3018A00224492F85822012AAB
:10196000EFD10028EDDA00F48030D4F8D42402F06E
:1019700001029042E5D18A002244012182F85712E7
:10198000AA6942F08002AA616A6912F0800FD8D178
:10199000DAF8043043F40073CAF80430226853695B
:1019A00003F40013536191E70123CBE72046FFF7CF
:1019B00005F82268536903F0804353618CE72046A1
:1019C000FFF702F894E730B40468606A29B10D4665
:1019D000A36A00EB134000230CE040EA0240A0623F
:1019E00012E003F1400104EB8101496800EB114072
:1019F0000133DBB2691E8B42F3D340EA024005F1AA
:101A00003F0104EB81014860002030BC704703684F
:101A1000596200207047704782B000230193019BF8
:101A200001330193019BB3F1706F15D80369002B4B
:101A3000F5DA00230193036943F001030361019B7D
:101A400001330193019BB3F1706F08D8036913F060
:101A5000010FF4D1002000E0032002B07047032002
:101A6000FBE784B010B5044603A880E80E009DF89B
:101A70001130012B21D1A36B23F48033A363E368DE
:101A800023F4840323F04003E360E36823F440136A
:101A9000E3609DF81830012B0AD02046FFF7BCFF09
:101AA0009DF80E30012B1CD0BDE8104004B07047EB
:101AB000E36843F48013E360EFE7E36843F0400337
:101AC000E3602046FFF7A8FF9DF8153023B9A36B0C
:101AD00043F48033A363E3E7A36B23F48033A3636E
:101AE000DEE7A36843F00603A360A36843F0200386
:101AF000A360D9E7022A0AD00921C26822F47052F1
:101B0000C260C36843EA8123C360002070472A4B48
:101B10000B442A4A93423FD9294B0B44294A93420A
:101B20003CD9A1F57403A3F51053274A934237D942
:101B3000A1F18373A3F5E74302F5C332A0329342C8
:101B400030D9224B0B44224A93422DD9214B0B44CE
:101B500002F5922202F57872934227D91E4B0B446C
:101B600002F5C32202F52072934221D9A1F1B77385
:101B7000A3F5585302F5B71202F55872934219D9DA
:101B8000164B0B4402F5122202F5F862934201D97A
:101B90000621B2E70721B0E70F21AEE70E21ACE73F
:101BA0000D21AAE70C21A8E70B21A6E70A21A4E74B
:101BB0000921A2E70821A0E7405327FFFF340C00CA
:101BC000401E1BFF3F420F007F4F120060B6E5FE34
:101BD0005FE3160000D3CEFEC05BB3FEE05459FEB7
:101BE000836843F00103836000207047836823F01B
:101BF000010383600020704782B000230193019BA2
:101C000001330193019BB3F1706F15D80369002B69
:101C1000F5DA00230193890141F020010161019B64
:101C200001330193019BB3F1706F08D8036913F07E
:101C3000200FF4D1002000E0032002B07047032001
:101C4000FBE782B000230193019B01330193019BC9
:101C5000B3F1706F13D80369002BF5DA00230193F9
:101C600010230361019B01330193019BB3F1706F5A
:101C700008D8036913F0100FF4D1002000E003200E
:101C800002B070470320FBE7D0F800381943C0F8D2
:101C9000001800207047000084B02DE9F041044690
:101CA00007A880E80E002546002306E003F1400265
:101CB00004EB82020021516001330E2BF6D99DF80E
:101CC000263003BBD4F8043843F00203C4F80438C8
:101CD000A36B43F40013A363A36B23F40023A36358
:101CE000A36B23F48023A3630023C4F8003E9DF874
:101CF0002130012B15D19DF81F306BB900212046F2
:101D0000FFF7C2FF11E0A36B23F40013A363A36BDF
:101D100043F40023A363E7E701212046FFF7B4FF64
:101D200003E003212046FFF7AFFF10212046FFF715
:101D300063FF804608B14FF001082046FFF781FF9E
:101D400008B14FF0010804F5006700233B617B6197
:101D5000FB610AE0CBB94FF00060C2F80009002235
:101D60000A614FF67F328A6001339DF81C10994258
:101D700010D905EB431202F51061D2F800090028D2
:101D8000E8DB0020C2F80009E9E74FF09040C2F814
:101D90000009E4E700230AE0BBB14FF09046C2F827
:101DA000006B002202614FF67F328260013399425C
:101DB00010D905EB431202F53060D2F8006B002E0B
:101DC000EADB0026C2F8006BEBE74FF00066C2F8D2
:101DD000006BE6E73B6923F480733B610023A3615A
:101DE0006FF0804363619DF81E301BB9A36943F017
:101DF0001003A361A2690D4B1343A3619DF8223028
:101E00001BB1A36943F00803A3619DF82630012BA1
:101E100004D04046BDE8F04104B07047A36943F0E8
:101E2000804343F00403A361F3E700BF00383C8024
:101E3000D0F8083813F0060307D0022B07D0062B82
:101E400001D00F2070470220704700207047022009
:101E5000704770B40B784A78012A22D0D0F81C2839
:101E600003F00F060124B44042EA0442C0F81C28E3
:101E700000EB4310D0F8003B13F4004F0ED1D0F824
:101E8000003B8A68C2F30A02097942EA814213439D
:101E900043F0805343F40043C0F8003B002070BC83
:101EA0007047D0F81C4803F00F06B24092B22243AC
:101EB000C0F81C2800EB4310D0F8002912F4004FA2
:101EC000ECD1D0F800298C68C4F30A04097944EAFB
:101ED000814444EA8353134343F0805343F4004363
:101EE000C0F80039DAE7000030B40B784A78012AEC
:101EF00024D000EB4313D3F8002B002A50DBD0F89A
:101F00003C580A7802F00F02012404FA02F225EA92
:101F10000242C0F83C28D0F81C28097801F00F01D3
:101F20008C4022EA0444C0F81C48D3F8001B234A22
:101F30000A40C3F8002B002030BC704700EB43136D
:101F4000D3F80029002A1EDBD0F83C580A7802F0AA
:101F50000F02012404FA02F292B225EA0202C0F84A
:101F60003C28D0F81C28097801F00F018C40A4B25D
:101F700022EA0404C0F81C48D3F80019104A0A40A9
:101F8000C3F80029D7E7D3F8002942F00062C3F86C
:101F90000029D3F8002942F08042C3F80029D3E792
:101FA000D3F8002B42F00062C3F8002BD3F8002BCB
:101FB00042F08042C3F8002BA1E700BF0078F3EFA6
:101FC000007833EC10B483B00023019304464B78BF
:101FD000012B0BD00B7800EB4313D3F8002B002A16
:101FE0002DDB002003B05DF8044B70470B7800EB4D
:101FF0004313D3F80029002A01DB0020F2E7D3F8CD
:10200000002942F00062C3F800290B7800EB43106E
:10201000D0F8003943F08043C0F80039019B013308
:102020000193019A42F210739A4228D80B7804EB7C
:102030004313D3F80039002BF0DB0020D2E7D3F8AC
:10204000002B42F00062C3F8002B0B7800EB43102A
:10205000D0F8003B43F08043C0F8003B019B0133C4
:102060000193019A42F210739A420AD80B7804EB5A
:102070004313D3F8003B002BF0DB0020B2E7012034
:10208000B0E70120AEE770B49DF80C4064B90333AB
:102090009D0807E000EB023303F5805351F8046B11
:1020A0001E600134AC42F5D3002070BC70470000C4
:1020B000F0B583B00C784B78012B2FD000EB441691
:1020C00006F530631D69ED0CED041D611D6925F0F9
:1020D000FF5525F4C0151D61002C40F0CD800C6922
:1020E0000CB18C680C618C680C621D69C4F312041D
:1020F0002C431C611C6944F400241C61012A00F07B
:10210000DE800B79012B00F0E080D6F8003B43F035
:102110000443C6F8003B002003B0F0BD0B6983BB4D
:1021200000EB4413D3F8105925F0FF5525F4C015E2
:10213000C3F81059D3F8105945F40025C3F81059C5
:10214000D3F81059ED0CED04C3F81059012A4FD003
:1021500000EB4414D4F8003943F00443C4F80039C8
:102160000B79012B6DD00B69002BD4D0D0F834380B
:102170000A7802F00F0101228A401343C0F8343874
:10218000C9E700EB441303F510631D69ED0CED0482
:102190001D611D6925F0FF5525F4C0151D61D4B9D9
:1021A0000E698D68AE4200D90D611D6945F40025A8
:1021B0001D611D690E69C6F3120635431D610D7957
:1021C000012DC3D11D6925F0C0451D611D6945F074
:1021D00000551D61BAE71E690D698F683D44013DD8
:1021E000B5FBF7F5424F07EAC54535431D61E0E70A
:1021F000CB691BB100EB4412C2F814390B79012BE7
:1022000008D000EB4410D0F8003943F00443C0F884
:10221000003980E7D0F8083813F4807F08D100EB4C
:102220004412D2F8003943F00053C2F80039E8E70D
:1022300000EB4412D2F8003943F08053C2F8003961
:10224000DFE7D0F8083813F4807F0ED1D4F80039D6
:1022500043F00053C4F8003914460B46C9681A7895
:102260001B8A0094FFF70FFF55E7D4F8003943F0BD
:102270008053C4F80039EFE70C6954B91C698D68C4
:10228000C5F312052C431C611C6944F400241C6135
:1022900034E78D682C44013CB4FBF5F4A7B205FB90
:1022A00007F50D621D69124F07EAC4442C431C61F7
:1022B0001C690D6AC5F312052C431C611EE7CA6830
:1022C000002A3FF41EAF5A611BE7D0F8083813F418
:1022D000807F06D1D6F8003B43F00053C6F8003BA0
:1022E00013E7D6F8003B43F08053C6F8003B0CE7F9
:1022F0000000F81F70B483B00646950802F0030290
:10230000002305E006F58054246841F8044B0133AE
:10231000AB42F7D39AB100F58050036801930846A9
:102320000024E3B2D900019BCB4000F8013B01340B
:10233000013A92B2002AF4D103B070BC704708464B
:10234000FAE70B784A78012A14D000EB4310D0F852
:10235000002B002A06DB2BB1D0F8003B23F0804392
:10236000C0F8003BD0F8003B43F40013C0F8003B3A
:102370000020704700EB4310D0F80029002A06DB4C
:102380002BB1D0F8003923F08043C0F80039D0F8E1
:10239000003943F40013C0F80039E9E70B784A78B4
:1023A000012A0ED000EB4310D0F8003B23F40013B9
:1023B000C0F8003B0B79023BDBB2012B15D90020A2
:1023C000704700EB4310D0F8003923F40013C0F835
:1023D00000390B79023BDBB2012BF0D8D0F8003981
:1023E00043F08053C0F80039E9E7D0F8003B43F0F0
:1023F0008053C0F8003BE2E7D0F8003823F4FE63D6
:10240000C0F80038D0F80038090101F4FE610B4330
:10241000C0F8003800207047D0F8003E23F00303D6
:10242000C0F8003ED0F8043823F00203C0F80438A6
:1024300000207047D0F8003E23F00303C0F8003EB0
:10244000D0F8043843F00203C0F804380020704785
:102450004269806910407047D0F8183800F5006074
:10246000C0691840000C7047D0F8183800F50060BB
:10247000C069184080B2704700EB4111D1F8082BB9
:1024800000F5006040691040704710B4D0F8104863
:10249000D0F8343801F00F02D340DB01DBB2234324
:1024A00000EB411000F51060806818405DF8044BA7
:1024B0007047406900F00100704738B50546C368B1
:1024C00023F0C043C360012913D029BBC36843F084
:1024D0008043C36000240A2000F024FD0A3428460B
:1024E000FFF7E7FF08B1C72CF5D9C82C12D00020A0
:1024F00038BDC36843F00053C36000240A2000F0D5
:1025000011FD0A342846FFF7D4FF0128EDD0C72C6F
:10251000F4D9EAE70120EBE70120E9E7D0F8003938
:1025200023F4FF6323F00703C0F80039D0F8043820
:1025300043F48073C0F804380020704710B4046C72
:10254000154B9C4203D9D0F8003B002B16DB00242E
:10255000C0F8104BD0F8104B44F40024C0F8104BD6
:10256000D0F8104B44F01804C0F8104BD0F8104BC2
:1025700044F0C044C0F8104B012903D000205DF89E
:10258000044B7047C0F8142BD0F8003B43F0802375
:10259000C0F8003BF2E700BF0A30544F002800F0BB
:1025A000E98170B582B00446036813F0010F3BD097
:1025B000A74B9B6803F00C03042B2CD0A44B9B6807
:1025C00003F00C03082B21D06368B3F5803F4FD094
:1025D000B3F5A02F52D09E4B1A6822F480321A60B5
:1025E0001A6822F480221A606368002B50D000F031
:1025F00093FC0546964B1B6813F4003F14D100F082
:102600008BFC401B6428F5D90320B8E1904B5B6834
:1026100013F4800FD8D08E4B1B6813F4003F03D007
:102620006368002B00F0A881236813F0020F55D0D7
:10263000874B9B6813F00C0F3ED0854B9B6803F0D3
:102640000C03082B33D0E368002B68D0814B0122A8
:102650001A6000F061FC05467D4B1B6813F0020F09
:1026600054D100F059FC401B0228F5D9032086E123
:10267000774A136843F480331360B5E7744B1A68E4
:1026800042F480221A601A6842F480321A60ABE782
:1026900000F042FC05466E4B1B6813F4003FC3D0AC
:1026A00000F03AFC401B6428F5D9032067E1684B31
:1026B0005B6813F4800FC6D1654B1B6813F0020FE3
:1026C00004D0E368012B01D0012058E1604A13686F
:1026D00023F0F803216943EAC1031360236813F070
:1026E000080F40D0636963B35B4B01221A6000F0AE
:1026F00013FC0546564B5B6F13F0020F33D100F00D
:102700000BFC401B0228F5D9032038E1504A13681E
:1027100023F0F803216943EAC1031360DEE74D4B60
:1027200000221A6000F0F8FB0546494B1B6813F0C5
:10273000020FD3D000F0F0FB401B0228F5D9032094
:102740001DE1454B00221A6000F0E6FB0546404BB8
:102750005B6F13F0020F06D000F0DEFB401B022877
:10276000F5D903200BE1236813F0040F79D0384B1F
:102770001B6C13F0805F33D100230193344B1A6C30
:1027800042F080521A641B6C03F080530193019B4A
:102790000125324B1B6813F4807F23D0A368012BE3
:1027A00034D0052B38D02A4B1A6F22F001021A6759
:1027B0001A6F22F004021A67A368002B36D000F0CB
:1027C000ABFB0646224B1B6F13F0020F48D100F003
:1027D000A3FB801B41F288339842F3D90320CEE05B
:1027E0000025D6E71D4A136843F48073136000F098
:1027F00093FB0646194B1B6813F4807FCED100F083
:102800008BFB801B0228F5D90320B8E0104A136F18
:1028100043F001031367CFE70D4B1A6F42F0040238
:102820001A671A6F42F001021A67C5E700F074FBDD
:102830000646074B1B6F13F0020F11D000F06CFB24
:10284000801B41F288339842F3D9032097E000BF00
:102850000038024000004742800E474200700040AE
:10286000EDB9A369002B00F08980484A926802F014
:102870000C02082A51D0022B17D0454B00221A60B7
:1028800000F04AFB0446414B1B6813F0007F42D026
:1028900000F042FB001B0228F5D903206FE03B4A01
:1028A000136C23F080531364DBE7394B00221A606A
:1028B00000F032FB0546354B1B6813F0007F06D055
:1028C00000F02AFB401B0228F5D9032057E0E369FA
:1028D000226A1343626A43EA8213A26A5208013AE7
:1028E00043EA0243E26A43EA0263284A5360284B00
:1028F00001221A6000F010FB0446244B1B6813F001
:10290000007F06D100F008FB001B0228F5D9032048
:1029100035E0002033E0002031E0012B31D01B4BAB
:102920005B6803F48001E269914201D0012026E056
:1029300003F03F02216A8A4201D001201FE0616A50
:1029400047F6C0721A40B2EB811F01D0012016E099
:1029500003F44031A26A5208013AB1EB024F01D0B0
:1029600001200CE003F07063E26AB3EB026F0AD05F
:10297000012004E001207047012000E0002002B0A7
:1029800070BD0120FBE70020F9E700BF00380240DE
:1029900060004742324B9B6803F00C03042B5CD071
:1029A000082B01D02F4870472DE9F04B2C4B5A686B
:1029B00002F03F025B6813F4800F2BD0284B5B685A
:1029C000C3F388131E4600275C010025E41A65EB5B
:1029D0000705A90141EA9461A001001B61EB050113
:1029E000CB0043EA5073C400A01943EB07014B022C
:1029F00043EAD0534402204619460023FDF7E8FB82
:102A0000174B5B68C3F3014301335B00B0FBF3F08A
:102A1000BDE8F08B124B5B68C3F388131E4600279A
:102A20005C010025E41A65EB0705A90141EA946100
:102A3000A001001B61EB0501CB0043EA5073C40009
:102A4000A01943EB07018B0243EA9053840220460E
:102A500019460023FDF7BCFBD2E70348704700BFCF
:102A6000003802400024F40000127A00002800F030
:102A70009E8070B50446504B1B6803F007038B42E1
:102A800009D2CBB24C4A1370136803F007038B4290
:102A900001D0012070BD236813F0020F17D013F08E
:102AA000040F04D0454A936843F4E05393602368CD
:102AB00013F0080F04D0414A936843F460439360D5
:102AC0003E4A936823F0F003A068034393600D46E9
:102AD000236813F0010F32D06368012B21D09A1EB6
:102AE000012A25D9354A126812F0020F61D0334904
:102AF0008A6822F0030213438B6000F00DFA064649
:102B00002E4B9B6803F00C036268B3EB820F16D068
:102B100000F002FA801B41F288339842F0D903207A
:102B2000B8E7264A126812F4003FE0D10120B1E76D
:102B3000224A126812F0007FD9D10120AAE71E4B69
:102B40001B6803F00703AB4209D9EAB21A4B1A70AB
:102B50001B6803F00703AB4201D001209AE723680A
:102B600013F0040F06D0154A936823F4E053E1688C
:102B70000B439360236813F0080F07D00F4A936844
:102B800023F46043216943EAC1039360FFF702FF26
:102B90000A4B9B68C3F30313094AD35CD840094B23
:102BA0001860094B186800F06BF9002072E70120EB
:102BB000704701206EE700BF003C02400038024031
:102BC000785900086C00002068000020014B18684C
:102BD000704700BF6C00002000230F2B00F2DC8048
:102BE000F0B482B05DE086685F000324BC4026EA52
:102BF0000406CC68BC4034438460466826EA02067A
:102C00004C68C4F300129A403243426056E0DC083C
:102C1000083450F8247003F0070296000F22B240E7
:102C200027EA02070A69B2403A4340F8242059E0F3
:102C3000072200E00022B2403A430234574E46F8E1
:102C40002420574A9468EA4302EA04064F6817F4BE
:102C5000801F01D045EA0406514CA660E46802EAF0
:102C600004064F6817F4001F01D045EA04064C4CD7
:102C7000E660646802EA04064F6817F4003F01D07A
:102C800045EA0406464C6660246822404E6816F405
:102C9000803F01D045EA0402414C226001330F2BF2
:102CA00077D801229A400C6804EA0205AA42F5D1BD
:102CB0004C6804F00304013C012C94D94A6802F0EA
:102CC0000302032A09D0C4685E000322B24024EA4A
:102CD00002048A68B2402243C2604A6802F00302DA
:102CE000022A94D004685E000322B24024EA02045F
:102CF0004A6802F00302B240224302604A6812F4BA
:102D0000403FCBD000220192264A546C44F48044C8
:102D10005464526C02F480420192019A9C08A61CF1
:102D20001E4A52F8267003F0030296000F22B240AA
:102D300027EA02071C4A90423FF47CAF02F580620A
:102D400090421AD002F58062904218D002F580625B
:102D5000904216D002F58062904214D002F5806253
:102D6000904212D002F58062904210D002F580624B
:102D700090423FF45DAF08225DE701225BE702224B
:102D800059E7032257E7042255E7052253E70622B5
:102D900051E702B0F0BC7047704700BF00380140F7
:102DA000003C01400038024000000240074AD3685E
:102DB00023F4E0631B041B0C000200F4E0601843E2
:102DC00040F0BF6040F40030D060704700ED00E09C
:102DD00030B4174BDB68C3F30223C3F10704042CA0
:102DE00028BF04241D1D062D18D9033B4FF0FF35C5
:102DF00005FA04F421EA0401994005FA03F322EAF2
:102E00000303194300280BDB0901C9B200F160403C
:102E100000F5614080F8001330BC70470023E5E7FF
:102E200000F00F000901C9B2024B1954F4E700BFCA
:102E300000ED00E014ED00E0002807DB00F01F02C9
:102E4000400901239340024A42F82030704700BFF6
:102E500000E100E00138B0F1807F0AD2064B5860F3
:102E6000064AF02182F823100020986007221A6099
:102E700070470120704700BF10E000E000ED00E067
:102E800010B504460E4B18784FF47A73B3FBF0F389
:102E90000C4A1068B0FBF3F0FFF7DCFF68B90F2CA9
:102EA00001D901200AE0002221464FF0FF30FFF750
:102EB0008FFF054B1C60002000E0012010BD00BF0B
:102EC000640000206C0000206800002008B50B4B57
:102ED0001A6842F400721A601A6842F480621A603A
:102EE0001A6842F480721A600320FFF75FFF0F2018
:102EF000FFF7C6FFFDF7D8FE002008BD003C0240EA
:102F0000034A1168034B1B780B441360704700BFE2
:102F10006CC1002064000020014B1868704700BF9E
:102F20006CC1002038B50446FFF7F6FF0546B4F142
:102F3000FF3F02D0044B1B781C44FFF7EDFF401B02
:102F4000A042FAD338BD00BF6400002030B4056A47
:102F5000026A22F0010202624268846924F073046A
:102F60000B681C4325F002058B682B43104DA842CB
:102F700003D005F58065A84205D123F00803CD688C
:102F80002B4323F004030A4DA84203D005F58065C6
:102F9000A84205D122F440724D6915438A692A433B
:102FA000426084614A684263036230BC704700BF7C
:102FB0000000014030B4036A026A22F480720262A7
:102FC0004268C46924F073040D682C4323F4007331
:102FD0008D6843EA0523124DA84203D005F58065AC
:102FE000A84206D123F40063CD6843EA052323F405
:102FF00080630B4DA84203D005F58065A84207D138
:1030000022F440524D6942EA05128D6942EA0512E6
:103010004260C4614A68C263036230BC704700BF4B
:103020000000014030B4036A026A22F48052026256
:103030004468C26922F4E6420D6842EA052223F49C
:1030400000538D6843EA0533094DA84203D005F5C6
:103050008065A84204D124F480444D6944EA851473
:103060004460C2614A680264036230BC704700BFBA
:103070000000014010B4036A046A24F001040462F1
:10308000846924F0F00444EA021223F00A030B439B
:10309000826103625DF8044B704710B4036A046AEE
:1030A00024F010040462846924F4704444EA023277
:1030B00023F0A00343EA0113826103625DF8044B2D
:1030C0007047836823F07003194341F00701816062
:1030D000704770470368344A904212D0B0F1804F75
:1030E0000FD0A2F57C4290420BD002F58062904254
:1030F00007D002F58062904203D002F578429042F8
:1031000003D123F070034A681343274A90422AD020
:10311000B0F1804F27D0A2F57C42904223D002F537
:10312000806290421FD002F5806290421BD002F56F
:103130007842904217D002F57052904213D002F5B7
:10314000806290420FD002F5806290420BD0A2F5CF
:103150009832904207D002F58062904203D002F587
:103160008062904203D123F44073CA68134323F072
:1031700080034A69134303608B68C3620B688362F0
:10318000094B984203D003F58063984201D10B6943
:10319000036301234361036913F0010F03D0036943
:1031A00023F00103036170470000014038B310B5FC
:1031B000044690F83D30EBB1022384F83D30211DE8
:1031C0002068FFF787FF012384F8463084F83E30FB
:1031D00084F83F3084F8403084F8413084F842303D
:1031E00084F8433084F8443084F8453084F83D3026
:1031F000002010BD80F83C30FDF778FDDCE70120B1
:10320000704738B310B5044690F83D30EBB1022357
:1032100084F83D30211D2068FFF75CFF012384F80E
:10322000463084F83E3084F83F3084F8403084F8EB
:10323000413084F8423084F8433084F8443084F8D4
:10324000453084F83D30002010BD80F83C30FFF759
:1032500040FFDCE70120704730B4036A026A22F0C5
:10326000100202624468826922F4E6420D6842EA72
:10327000052223F020038D6843EA0513114DA8426F
:1032800003D005F58065A84206D123F08003CD6800
:1032900043EA051323F040030A4DA84203D005F585
:1032A0008065A84207D124F440644D6944EA85044E
:1032B0008D6944EA8504446082614A6882630362DE
:1032C00030BC70470000014038B590F83C30012B0D
:1032D00066D00D460446012380F83C300C2A5DD8A8
:1032E000DFE802F0075C5C5C1E5C5C5C335C5C5C91
:1032F00047000068FFF72AFE2268936943F008033D
:1033000093612268936923F00403936122689369AF
:1033100029690B4393610020002384F83C3038BDB9
:103320000068FFF799FF2268936943F40063936193
:103330002268936923F48063936122689369296901
:1033400043EA012393610020E6E70068FFF732FEBD
:103350002268D36943F00803D3612268D36923F05C
:103360000403D3612268D36929690B43D361002028
:10337000D2E70068FFF756FE2268D36943F4006382
:10338000D3612268D36923F48063D3612268D3694F
:10339000296943EA0123D3610020BDE70120BBE78F
:1033A0000220BCE710B4846824F47F4442EA03237B
:1033B0000B43234383605DF8044B704790F83C3027
:1033C000012B73D010B50446012380F83C30022352
:1033D00080F83D300268936823F47F4323F077033D
:1033E00093600B68402B56D011D9702B3BD01FD85F
:1033F000502B45D0602B19D1CA6849680068FFF787
:103400004CFE60212068FFF75CFE002024E0102BBA
:1034100004D009D9202B01D0302B07D119462068C0
:10342000FFF74FFE002017E0002BF7D0012013E03C
:10343000B3F5805F0FD0B3F5005FF7D1CB684A6872
:1034400089680068FFF7AEFF2268936843F4804301
:103450009360002000E00020012384F83D30002329
:1034600084F83C3010BDCB684A6889680068FFF773
:1034700099FF2268936843F0770393600020EBE79D
:10348000CA6849680068FFF7F5FD50212068FFF71A
:1034900018FE0020E0E7CA6849680068FFF7EAFD07
:1034A00040212068FFF70DFE0020D5E7022070477D
:1034B00090F83C30012B3BD030B4012380F83C30F5
:1034C000022380F83D3003685C689D6824F0700436
:1034D0000A6822435A600368164A93421AD0B3F12D
:1034E000804F17D0A2F57C42934213D002F5806240
:1034F00093420FD002F5806293420BD002F57842DE
:10350000934207D002F57052934203D0A2F5943251
:10351000934204D125F080054A6815439D6001233C
:1035200080F83D30002380F83C30184630BC7047AE
:10353000022070470000014090F83C30012B22D05F
:10354000012380F83C30CB6823F440738A6813432E
:1035500023F480634A68134323F400630A68134327
:1035600023F480530A69134323F400534A69134335
:1035700023F48043CA69134302685364002380F82C
:103580003C3018467047022070470000034AD2F8CA
:10359000883043F47003C2F88830704700ED00E0D3
:1035A00000F1080343604FF0FF328260C3600361A3
:1035B00000230360704700230361704743684B603A
:1035C0009A688A609A68516099600861036801335B
:1035D0000360704730B40D68B5F1FF3F02D000F1D1
:1035E000080202E0026904E01A4653681C68AC4213
:1035F000FAD953684B6099608A605160086103682A
:103600000133036030BC7047036942688168916090
:103610008268416851605A68824206D00022026185
:103620001A68013A1A601868704782685A60F5E7AC
:1036300010B5044600F01EFFA26BE36B9A4204D063
:10364000002400F039FF204610BD0124F9E770B5D1
:1036500004461646856B026C5AB903681BB10020FC
:103660000135A56370BD806800F0F4FD0023A36000
:10367000F6E76EB9406802F0E3F8226C6368134421
:103680006360A268934219D3236863600020E7E770
:10369000C06802F0D5F8226C5242E3681344E3603C
:1036A00021688B4202D2A3681A44E260022E01D044
:1036B0000020D5E725B1013D0020D1E70020CFE76C
:1036C0000020CDE738B5054600F0D4FE95F845401A
:1036D00064B203E000F0A8FD013C64B2002C08DDF8
:1036E0006B6A33B105F1240000F00CFD0028F3D023
:1036F000F0E7FF2385F8453000F0DEFE00F0BAFE6B
:1037000095F8444064B203E000F08EFD013C64B2E1
:10371000002C08DD2B6933B105F1100000F0F2FC3C
:103720000028F3D0F0E7FF2385F8443000F0C4FE12
:1037300038BD000038B540B94FF0500383F311880D
:10374000BFF36F8FBFF34F8FFEE704460D4600F0C7
:1037500091FE2168E26B236C03FB0210A060002045
:10376000A0636160013A02FB0313E360FF2384F866
:10377000443084F84530A5B923691BB900F09CFE9C
:10378000012038BD04F1100000F0BCFC0028F5D089
:10379000084B4FF080521A60BFF34F8FBFF36F8F0B
:1037A000ECE704F11000FFF7FBFE04F12400FFF743
:1037B000F7FEE3E704ED00E010B5029B0C4639B9D3
:1037C0001B60D8631C6401211846FFF7B3FF10BDCE
:1037D0001A60F6E740B94FF0500383F31188BFF346
:1037E0006F8FBFF34F8FFEE710B584B0044653B11F
:1037F00092B189B94FF0500383F31188BFF36F8FF3
:10380000BFF34F8FFEE74FF0500383F31188BFF3F0
:103810006F8FBFF34F8FFEE74AB941B14FF05003AE
:1038200083F31188BFF36F8FBFF34F8FFEE74820FC
:1038300003900398482808D04FF0500383F3118871
:10384000BFF36F8FBFF34F8FFEE720461C46039BED
:1038500000949DF81830FFF7AFFF204604B010BD6C
:10386000F0B585B0019260B1044699B9026C8AB195
:103870004FF0500383F31188BFF36F8FBFF34F8F67
:10388000FEE74FF0500383F31188BFF36F8FBFF350
:103890004F8FFEE7022B0BD1E26B012A08D04FF0CD
:1038A000500383F31188BFF36F8FBFF34F8FFEE791
:1038B0001E460F4600F0BEFC50B9019B53B14FF0BD
:1038C000500383F31188BFF36F8FBFF34F8FFEE771
:1038D00000253AE0002538E0324639462046FFF719
:1038E000B6FE636A4BB9A8B13B4B4FF080521A60E9
:1038F000BFF34F8FBFF36F8F0CE004F1240000F093
:1039000001FC38B1344B4FF080521A60BFF34F8F37
:10391000BFF36F8F00F0D0FD012005B0F0BD00F0C7
:10392000CBFD0020F9E702A800F032FC012519E0E8
:10393000002384F8443021E0002384F8453023E05C
:103940002046FFF7BFFE00F0CDFA00F093FDA26B1A
:10395000E36B9A42C0D3022EBED0019B002BDED077
:10396000002DE0D000F0A8FD00F028FA00F082FD64
:1039700094F844305BB2B3F1FF3FD9D094F84530AE
:103980005BB2B3F1FF3FD7D000F096FD01A902A8CA
:1039900000F00AFCC8B92046FFF74AFE0028CFD045
:1039A000019904F1100000F095FB2046FFF78AFE14
:1039B00000F098FA0028C8D1074B4FF080521A60E7
:1039C000BFF34F8FBFF36F8FBFE72046FFF77AFE3D
:1039D00000F088FA0020A0E704ED00E048B108B547
:1039E000002181600160C1600B460A46FFF738FF85
:1039F00008BD704710B582B000900B4600221146FA
:103A00000120FFF7E7FE0446FFF7E8FF204602B07B
:103A100010BD0000084B1B681B683BB1064B1B68C0
:103A2000DB68DB685A68054B1A607047034B4FF040
:103A3000FF321A60704700BFA023002070240020CE
:103A40002DE9F04780469946089D099F0A9C266B00
:103A500002F18042013A06EB820626F00706666410
:103A6000A1BB002384F834300BE0D05CE11881F86E
:103A70003400D15C11B101330F2BF6D9002384F847
:103A80004330062D00D90625E562A5644FF0000AF3
:103A9000C4F84CA0201DFFF78EFD04F11800FFF7BD
:103AA0008AFD2461C5F10705A5616462C4F850A0D0
:103AB000C4F854A084F858A04A464146304600F065
:103AC000B1FC206007B13C60BDE8F0870A460023E6
:103AD000D2E7000038B50024062C15D90E4D284633
:103AE000FFF75EFD0D4C2046FFF75AFD0C48FFF72F
:103AF00057FD0C48FFF754FD0B48FFF751FD0B4BEA
:103B00001D600B4B1C6038BD0A4B142000FB0430B9
:103B1000FFF746FD0134DFE7482400205C24002045
:103B20007C240020A824002094240020A02300202E
:103B3000A4230020A823002010B5044600F09AFC1E
:103B4000204A1368013313601F4B1B6863BB1E4B75
:103B50001C601368012B01D1FFF7BCFF1B4A1368DF
:103B600001331360E26A0123934019490868034353
:103B70000B60211D174B142000FB0230FFF71EFDC8
:103B800000F09AFC144B1B686BB10F4B1B68DA6A90
:103B9000E36A9A4207D2114B4FF080521A60BFF38A
:103BA0004F8FBFF36F8F10BD0B4B1B68002BD5D110
:103BB000054B1B68DA6AE36A9A42CFD8024B1C6055
:103BC000CCE700BF342400209C23002040240020A8
:103BD00044240020A82300209024002004ED00E0CD
:103BE00008B511E000F046FC0A4BDB68D8680430E9
:103BF000FFF70AFD084A1368013B1360074A136880
:103C0000013B136000F058FC044B1B68002BE9D10A
:103C100008BD00BFA8240020342400203824002040
:103C200008B5FFF7DDFF064B1B68012BF9D9054BE3
:103C30004FF080521A60BFF34F8FBFF36F8FF0E7E2
:103C4000A823002004ED00E070B504460E461D4B8D
:103C50001D681D4B18680430FFF7D6FC50B91A4B8D
:103C60001B68DA6A012303FA02F218490B6823EA97
:103C700002030B60B4F1FF3F13D02C44124B1B68BE
:103C80005C60A54216D8124B18680F4B19680431B6
:103C9000FFF7A0FC0F4B1B68A34212D90D4B1C6011
:103CA0000FE0002EE9D0084B196804310A48FFF7ED
:103CB00085FC06E0094B1868034B19680431FFF7CF
:103CC00089FC70BDBC2400209C23002044240020DB
:103CD000A02300207024002094240020A42300208E
:103CE00070B586B00B9D0C9C45B94FF0500383F323
:103CF0001188BFF36F8FBFF34F8FFEE744B94FF0CA
:103D0000500383F31188BFF36F8FBFF34F8FFEE72C
:103D100060260496049E602E08D04FF0500383F373
:103D20001188BFF36F8FBFF34F8FFEE7049E2563AB
:103D300000250395029405AD01950A9D0095FFF7B6
:103D40007FFE2046FFF7F8FE059806B070BD000024
:103D500010B588B000240594069407AA06A905A802
:103D6000FCF74EFD059B0293069B019300942346AE
:103D7000079A0D490D48FFF7B3FF08B908B010BD09
:103D80004FF0500383F31188BFF36F8FBFF34F8F52
:103D9000074B4FF0FF321A60064B01221A60064BA8
:103DA0001C6000F009FCE9E788590008213C000884
:103DB0007024002090240020BC240020024A1368B4
:103DC00001331360704700BF3C240020F8B53A4B24
:103DD0001B68002B69D1394B1D6801351D60C5B9C1
:103DE000374B1B681B6843B14FF0500383F31188B6
:103DF000BFF36F8FBFF34F8FFEE7314A1168314B2E
:103E0000186810601960304A136801331360FFF7B7
:103E100001FE2E4B1B68AB423DD900242C4B1B6886
:103E2000DB6A03EB83039A002A4B9B58012B00D9D2
:103E30000124294B1B68002B3CD001243AE00124CB
:103E40001F4B1B681B6843B31D4B1B68DB68DE6898
:103E500073689D4226D3371D3846FFF7D5FBB36AFA
:103E60001BB106F11800FFF7CFFBF36A01229A405D
:103E70001A49086802430A6003EB83039A00394633
:103E800014481044FFF79AFBF26A114B1B68DB6A77
:103E90009A42D4D2D4E70024D2E70C4B4FF0FF3241
:103EA0001A60BBE7094A1360B8E70D4A136801338B
:103EB000136000242046F8BD3C240020BC240020D0
:103EC000A0230020A42300207424002070240020BC
:103ED0009C230020A8230020C0240020442400208C
:103EE0007824002038B5334B1B6843B94FF050039A
:103EF00083F31188BFF36F8FBFF34F8FFEE700F09E
:103F0000B9FA2C4B1A68013A1A601B68002B4DD184
:103F1000294B1B6823B9002400F0CEFA204638BD97
:103F20000024264B1B681BB3244BDB68DC6804F1C0
:103F30001800FFF769FB251D2846FFF765FBE36ABC
:103F400001229A401E49086802430A6003EB83037A
:103F50009A0029461B481044FFF730FBE26A1A4BCF
:103F60001B68DB6A9A42DCD3184B01221A60D8E73F
:103F70000CB1FFF74FFD164B1C6854B1FFF726FF3D
:103F800010B1124B01221A60013CF7D1104B0022F4
:103F90001A600E4B1B685BB10E4B4FF080521A60DB
:103FA000BFF34F8FBFF36F8F0124B5E70024B3E752
:103FB0000024B1E73C240020342400207C2400208D
:103FC00044240020A82300209C230020C02400209B
:103FD0007824002004ED00E010B5A8B104460F4B92
:103FE0001B6843B14FF0500383F31188BFF36F8F09
:103FF000BFF34F8FFEE7FFF7E1FE00212046FFF7FA
:1040000023FEFFF76FFF38B9054B4FF080521A605F
:10401000BFF34F8FBFF36F8F10BD00BF3C24002054
:1040200004ED00E0254B1B681BB1254B01221A60F3
:104030007047234B00221A60224B1B68224A1268E9
:10404000DA65224B1B68B3FA83F3DBB2C3F11F03BB
:1040500003EB83018A001E498A5842B94FF050038E
:1040600083F31188BFF36F8FBFF34F8FFEE710B458
:1040700017489A00D418A10001444C6864684C6049
:104080001A4491000831084484420FD003EB8303A3
:104090009A000F4B13445B68DA680A4B1A601B687E
:1040A000DA6D094B1A605DF8044B70476168084887
:1040B000142202FB03025160E8E700BF3C24002009
:1040C000C02400209C2300209823002044240020AA
:1040D000A823002040B94FF0500383F31188BFF3A9
:1040E0006F8FBFF34F8FFEE710B50C46044B196876
:1040F0001831FFF76FFA01212046FFF7A5FD10BD2B
:104100009C23002038B5C368DC6844B94FF05003E5
:1041100083F31188BFF36F8FBFF34F8FFEE704F176
:1041200018052846FFF770FA134B1B68E3B9251DE5
:104130002846FFF769FAE36A01229A400F490868A6
:1041400002430A6003EB83039A0029460C4810449B
:10415000FFF734FAE26A0B4B1B68DB6A9A4208D914
:104160000120094B186038BD29460848FFF726FA98
:10417000F0E70020F7E700BF3C24002044240020A3
:10418000A82300209C230020C02400207C240020A1
:10419000034B1B680360034B1B684360704700BF01
:1041A00074240020BC240020F8B550B1054689B91C
:1041B0004FF0500383F31188BFF36F8FBFF34F8F1E
:1041C000FEE74FF0500383F31188BFF36F8FBFF307
:1041D0004F8FFEE70C4600F04DF9114B19686868E7
:1041E0000A1A2368B3F1FF3F16D02F680D4E3668C8
:1041F000B74201D0884211D9934203D800232360EB
:10420000012405E09B1A23602846FFF7C1FF002424
:1042100000F052F92046F8BD0024F9E70124F7E741
:10422000BC24002074240020014B01221A60704736
:10423000C0240020054B1B6833B1054B1B680BB134
:104240000020704702207047012070479024002012
:104250003C240020002849D038B50446264A12687C
:10426000824208D04FF0500383F31188BFF36F8F61
:10427000BFF34F8FFEE7C26C42B94FF0500383F398
:104280001188BFF36F8FBFF34F8FFEE7013AC2640F
:10429000C06AA16C88422BD062BB251D2846FFF75F
:1042A000B3F970B9E26A142303FB02F31349CB5844
:1042B0003BB9012303FA02F211490B6823EA020316
:1042C0000B60A36CE362C3F10702A261012404FA4C
:1042D00003F20B49086802430A602946074A142082
:1042E00000FB0320FFF76AF9204638BD0020704725
:1042F0000020FAE70020F8E79C230020A8230020F4
:1043000044240020842801D00330704700207047E7
:1043100008B5FFF71DFD002008BD2DE9F04184B070
:1043200004468846456806680769B0F90800FFF743
:10433000E9FF6369A26902920193009043463A46FD
:1043400031462846FFF7CCFC04B0BDE8F08108B543
:10435000034600B901231846FFF73EFE002008BDC2
:1043600008B541680120FFF745FB08BD01290CD1C4
:1043700000B583B043680322009200221146012059
:10438000FFF728FA03B05DF804FB0020704710B572
:1043900082B0C36882684168006800240094FFF717
:1043A00019FA02B010BD000082B0002301930D4B3A
:1043B0001B68B3F1FF3F08D04FF0500383F311881F
:1043C000BFF36F8FBFF34F8FFEE74FF0500383F3C0
:1043D0001188BFF36F8FBFF34F8F019B002BFCD071
:1043E00002B070477000002008480068006880F341
:1043F00008884FF0000080F3148862B661B6BFF3FE
:104400004F8FBFF36F8F00DF00BF000008ED00E0AB
:10441000DFF80C00016841F4700101607047000092
:1044200088ED00E04FF0807340F8043C21F001017A
:1044300040F8081C054B40F80C3C40F8202C6FF06D
:10444000020340F8243C4438704700BFA9430008E9
:10445000074B19680868B0E8F04F80F30988BFF38C
:104460006F8F4FF0000080F311887047AFF300802A
:104470009C2300204FF0500383F31188BFF36F8F0C
:10448000BFF34F8F0A4A136801331360012B00D02A
:104490007047084B1B6813F0FF0FF9D04FF0500323
:1044A00083F31188BFF36F8FBFF34F8FFEE700BF19
:1044B0007000002004ED00E0094B1B6843B94FF089
:1044C000500383F31188BFF36F8FBFF34F8FFEE765
:1044D000013B034A13600BB983F31188704700BF97
:1044E000700000200000000000000000000000003C
:1044F000EFF30980BFF36F8F154B1A681EF0100F92
:1045000008BF20ED108A20E9F04F10602DE9090066
:104510004FF0500080F31188BFF34F8FBFF36F8FC0
:10452000FFF780FD4FF0000080F3118809BC196887
:104530000868B0E8F04F1EF0100F08BFB0EC108A0A
:1045400080F30988BFF36F8F704700BFAFF300801F
:104550009C23002008B54FF0500383F31188BFF36C
:104560006F8FBFF34F8FFFF731FC18B1034B4FF044
:1045700080521A60002383F3118808BD04ED00E027
:10458000084A0023136008490B60084B1B68084960
:10459000A1FB03139B09013B06490B600723136032
:1045A000704700BF10E000E018E000E06C00002061
:1045B000D34D621014E000E03A4B1A683A4B9A422D
:1045C0000DD0384B1A68394B9A4211D14FF0500335
:1045D00083F31188BFF36F8FBFF34F8FFEE74FF068
:1045E000500383F31188BFF36F8FBFF34F8FFEE744
:1045F00010B582B02E4B1A78D2B20192FF221A70F7
:104600001B78DBB28DF803309DF8033003F05003C4
:10461000284A1370284B07221A6009E0264A1368BB
:10462000013B13609DF803305B00DBB28DF8033073
:104630009DF8033013F0800FF0D11F4B1B68032B44
:1046400008D04FF0500383F31188BFF36F8FBFF38F
:104650004F8FFEE71B0203F4E063174A1360019BD0
:10466000DBB2134A1370154B1A6842F470021A60D9
:104670001A6842F070421A60FFF782FF0024104B64
:104680001C60FFF7C5FE0F4A136843F040431360F8
:10469000FFF7AAFEFFF7C6FCFFF786FE204602B032
:1046A00010BD00BF00ED00E071C20F4170C20F41AC
:1046B00000E400E0C4240020C824002020ED00E035
:1046C0007000002034EF00E098B108B503460020E8
:1046D000C3F8B802C3F8C402C3F8D00209B1C3F8E2
:1046E000B4121846012380F89C320270FCF772F96C
:1046F00008BD0320704710B582B00023ADF8063026
:1047000089B10446C4F8B812CB6A23B10DF1060092
:104710009847C4F8D002D4F8D8320133C4F8D8325C
:10472000002002B010BD0320FBE708B5FCF7B0F98C
:1047300008BD08B5D0F8B83213B11B68984708BD5A
:104740000020FCE708B5D0F8B8325B68984700B99C
:1047500008BD0320FCE738B5044600F2AA25284628
:1047600000F0DBF90123C4F89432B4F8B032C4F895
:10477000983294F8AA1201F01F03012B0DD03BB11F
:10478000022B0FD001F080012046FCF79CF903E0DA
:104790002946204600F098FB38BD2946204600F007
:1047A000D1FBF9E72946204600F012FCF4E7F8B502
:1047B0000446012380F89C320023C0F89432436001
:1047C000C0F8A43280F8A032D0F8B832DBB15B6810
:1047D000DBB100219847D0B90027402300221146C1
:1047E0002046FCF75DF90126A4F864614025C4F871
:1047F00060512B46002280212046FCF751F9A68407
:1048000025623846F8BD0027E7E70027E5E70327DC
:10481000E3E701740020704790F89C32DBB2042B70
:1048200004D090F89C32DBB280F89D32042380F8EB
:104830009C320020704790F89C32DBB2042B01D0F0
:104840000020704790F89D32DBB280F89C32F7E789
:1048500008B590F89C32DBB2032B01D0002008BDD4
:10486000D0F8B832002BF9D0DB69002BF6D098478E
:10487000F4E708B5D0F8D432AE3350F823205AB15B
:1048800090F89C32DBB2032B01D0002008BD136AE4
:1048900023B198470020F9E70320F7E70020F5E768
:1048A00008B5D0F8D432AE3350F823205AB190F87E
:1048B0009C32DBB2032B01D0002008BD536A23B128
:1048C00098470020F9E70320F7E70020F5E70020EC
:1048D000704708B5012380F89C32D0F8B83223B174
:1048E0005B680179984710B908BD0020FCE70320F8
:1048F000FAE7002070470020704738B504460D469F
:10490000002945D11346D0F89422032A01D0002073
:1049100038BDD0F85C11D0F8602191420DD890F8E4
:10492000AA3203F01F03012B12D0022B16D190F8EC
:10493000AE12FFF7E0FF05460FE0891AC0F85C11E0
:104940008A4228BF0A46194600F0A6FC0020DFE78D
:1049500090F8AE12FFF7CDFF054625B994F89C32CA
:10496000DBB2032B04D0204600F09EFC0020CFE7F2
:1049700005F1AE0354F823301B69002BF3D0C4F8C3
:10498000D452AE3554F825301B6920469847EAE7E3
:1049900001F07F01FFF7AFFF0246B0B994F89C32F7
:1049A000DBB2032B01D00020B2E700F1AE0354F8D4
:1049B00023309B695BB1C4F8D402AE3254F8223084
:1049C0009B69294620469847A2E70020A0E70020DF
:1049D0009EE738B5044600294BD11346D0F89422FF
:1049E000022A07D094F8A032002B60D0002084F86F
:1049F000A00238BDC269016A8A420ED88A4218D024
:104A000094F89C32DBB2032B27D080212046FCF7A0
:104A10005AF8204600F053FCE4E7521AC2611946E6
:104A200000F023FC00231A4619462046FCF76BF8D9
:104A3000D8E783699942E3D8D0F898229342DFD22D
:104A40000022114600F011FC0021C4F898120B4618
:104A50000A462046FCF757F8C4E7D4F8B832DA68BB
:104A6000002AD2D00022C4F8D422DB68204698471E
:104A7000CBE70D4641F08001FFF73DFF0246C0B98C
:104A800094F89C32DBB2032B01D00020B1E700F197
:104A9000AE0354F823305B696BB1C4F8D402AE3274
:104AA00054F822305B69294620469847A1E7002048
:104AB0009FE700209DE700209BE703780A881344C6
:104AC0000B80037818447047428803789A4218D9BB
:104AD00030B583B00D460446ADF806306288BDF8A7
:104AE00006309A420AD90DF10601FFF7E6FF437836
:104AF000052BF3D18378AB42F0D100E0002003B066
:104B000030BD00207047002302E00133DBB20130EA
:104B10000278002AF9D1184670470B7803704B7859
:104B200043708B78CA7843EA022343800B794A7931
:104B300043EA022383808B79CA7943EA0223C38044
:104B4000704710B504468021FBF7BDFF00212046C9
:104B5000FBF7B9FF10BD30B583B004460D46002306
:104B6000ADF806304A88130A013B062B00F2AB80F1
:104B7000DFE803F0041F33A9A98D9A00D0F8B432FE
:104B80001B680DF10601007C9847EA88002A00F0B6
:104B9000A380BDF80630002B00F099809A4228BF10
:104BA0001A46ADF806200146204600F051FB03B03E
:104BB00030BD037C43B9D0F8B8329B6A0DF10600D2
:104BC000984702234370E0E7D0F8B832DB6A0DF172
:104BD0000600984702234370D7E7D2B2052A52D87D
:104BE000DFE802F003101D2A3744D0F8B4325B68C6
:104BF00023B10DF10601007C9847C6E72946FFF76F
:104C0000A0FFD4E7D0F8B4329B6823B10DF10601C0
:104C1000007C9847B9E72946FFF793FFC7E7D0F82C
:104C2000B432DB6823B10DF10601007C9847ACE794
:104C30002946FFF786FFBAE7D0F8B4321B6923B1E3
:104C40000DF10601007C98479FE72946FFF779FFA1
:104C5000ADE7D0F8B4325B6923B10DF10601007CF9
:104C6000984792E72946FFF76CFFA0E7D0F8B432E7
:104C70009B6923B10DF10601007C984785E7294621
:104C8000FFF75FFF93E72946FFF75BFF8FE7037CA2
:104C900033B9D0F8B8325B6B0DF10600984774E772
:104CA0002946FFF74EFF82E7037C43B9D0F8B832BC
:104CB0001B6B0DF1060098470723437065E72946F3
:104CC000FFF73FFF73E72946FFF73BFF6FE72946F2
:104CD0002046FFF736FF6AE7204600F0E5FA66E770
:104CE00038B504468B88FBB9CB88EBB94B887F2B52
:104CF0001AD803F07F0590F89C32DBB2032B0CD05E
:104D000080F89E522946FBF7EEFE204600F0CCFAD2
:104D100035B1022384F89C3209E0FFF712FF06E068
:104D2000012384F89C3202E02046FFF70AFF38BDD9
:104D300070B504460D468978304B1970012910D89A
:104D400090F89C32DBB2022B11D0032B28D02946DD
:104D5000FFF7F7FE294B19782046FFF7F3FC0326EF
:104D600003E02946FFF7EDFE0326304670BD99B1FA
:104D70004160FFF7DEFC064638B129462046FFF7C2
:104D8000E0FE022384F89C32EFE7204600F08CFA24
:104D9000032384F89C32E8E700F086FA0026E4E773
:104DA000C9B14368994225D0D9B2FFF7CBFC134B68
:104DB000197861602046FFF7BCFC0646B0B1294671
:104DC0002046FFF7BEFE21792046FFF7BBFC0223F9
:104DD00084F89C32C9E7022380F89C324160FFF7D7
:104DE000B1FC204600F060FA0026BEE7204600F045
:104DF0005BFABAE700F058FA0026B6E7CC240020A8
:104E000008B5CB88012B0DD190F89C3203F0FF023E
:104E10009BB1022A09D9032A0FD10122011D00F0FA
:104E200017FA01E0FFF78DFE08BD0146002341F8A7
:104E3000083F012200F00CFAF6E7FFF782FEF3E7E5
:104E400008B590F89C32013B022B12D8CB88022B7C
:104E50000CD10123C360D0F8A4320BB10323C3608B
:104E6000022200F10C0100F0F3F908BDFFF769FE22
:104E7000FBE7FFF766FEF8E708B54B88012B04D087
:104E8000022B07D0FFF75DFE08BDC0F8A43200F08A
:104E90000BFAF9E78B881B0A80F8A03200F004FABD
:104EA000F2E708B590F89C32013B022B09D84B88F9
:104EB000012B00D008BD0023C0F8A43200F0F4F9A3
:104EC000F8E7FFF73EFEF5E708B50B7803F060035F
:104ED000202B06D0402B04D05BB1FFF732FE002020
:104EE00006E0D0F8D432AE3350F823309B689847B0
:104EF00008BD4B78092B21D8DFE803F0141C2018DB
:104F000020090520100DFFF726FE0020F0E7FFF72F
:104F1000E7FE0020ECE7FFF70BFFE9E7FFF770FF84
:104F20000020E5E7FFF78CFF0020E1E7FFF7A4FF93
:104F30000020DDE7FFF7B5FF0020D9E7FFF701FE0E
:104F40000020D5E770B505460C460B7803F06003EA
:104F5000202B07D0402B05D023B1FFF7F2FD002610
:104F6000304670BD95F89C32013B022B2AD821793E
:104F7000012905D921462846FFF7E3FD0026EFE782
:104F80002846FFF7B6FC034680B900F1AE0255F89B
:104F900022209268A2B1C5F8D402AE3355F823306E
:104FA0009B68214628469847064600E00326E3888A
:104FB000002BD5D1002ED3D1284600F075F9CFE7CC
:104FC0000326F4E721462846FFF7BBFD0026C7E786
:104FD00070B505460C468A88D6B20B7803F060039C
:104FE000202B06D0402B04D0C3B1FFF7AAFD002030
:104FF00070BD31462846FFF77EFC002840F0028154
:10500000C5F8D40200F1AE0255F822209268002AB9
:1050100000F0FA80214628469047E9E74B78012BBB
:1050200031D0002B6FD0032B40F0E88090F89C32F9
:10503000DBB2022B05D0032B15D0FFF782FD002039
:10504000D6E70EB1802E05D121462846FFF779FD1F
:105050000020CDE73146FBF736FD80212846FBF7DF
:1050600032FD0020C4E74B8823B91EB1802E01D049
:10507000CB8823B1284600F017F90020B8E7314665
:10508000FBF721FDF6E790F89C32DBB2022B05D04E
:10509000032B15D0FFF755FD0020A9E70EB1802E98
:1050A00005D121462846FFF74CFD0020A0E73146F8
:1050B000FBF709FD80212846FBF705FD002097E757
:1050C0004B88002B40F0A28016F07F0F17D12846A6
:1050D00000F0EAF831462846FFF70DFC002840F0C2
:1050E0009780C5F8D40200F1AE0255F822209268EC
:1050F000002A00F08F8021462846904778E7314605
:10510000FBF7E9FCE3E790F89C32DBB2022B05D019
:10511000032B28D0FFF715FD002069E70EB1802E84
:1051200013D112F0800F14D106F07F0606EB86062D
:10513000B30003F5A8712944043100240C60022255
:10514000284600F085F8204652E7FFF7FAFC0020D9
:105150004EE706F07F0606EB8606B30003F110016A
:1051600029440431E9E752B2002A1FDB06F00F039D
:1051700003EB830399000144B1F8643123B3002A9F
:1051800027DB06F07F0202EB8202930003F5A8748E
:105190002C4404340EB1802E25D10023236002223A
:1051A0002146284600F054F8002021E706F00F03BE
:1051B00003EB8303990001448B8C002BDFD1214644
:1051C000FFF7BFFC002013E72146FFF7BAFC0020E1
:1051D0000EE706F07F0202EB8202930003F1100457
:1051E0002C440434D6E731462846FBF727FC10B19F
:1051F00001232360D3E700232360D0E7FFF7A1FC5E
:105200000020F5E60020F3E60020F1E60020EFE6BE
:105210000020EDE60020EBE6C8B170B50D4616465D
:105220000446FFF770FC01304000308028700323F3
:105230006B70022307E0EA5401345A1CD2B20021F9
:10524000A9540233DBB22278002AF4D170BD704732
:1052500010B513460222C0F894228361C3610A4646
:105260000021FBF748FC002010BD08B513460A4694
:105270000021FBF740FC002008BD10B513460322B7
:10528000C0F89422C0F85831C0F85C310A460021B9
:10529000FBF739FC002010BD08B513460A46002173
:1052A000FBF731FC002008BD08B50422C0F89422A9
:1052B00000231A461946FBF71EFC002008BD08B55E
:1052C0000522C0F8942200231A461946FBF71BFC5E
:1052D000002008BD10B5D0F8D43203F1B00250F868
:1052E00022408CB100EB820043687BB194F800024D
:1052F000FF280DD09B6894F8012221469847FF2390
:1053000084F80032002010BD0320FCE70020FAE7FB
:105310000020F8E70A23038000487047F0000020CF
:10532000F8B507460F4C82212046FFF7CDFB064615
:1053300001212046FFF7C8FB054681212046FFF7E3
:10534000C3FB0EB11023B3711DB140232B71002399
:105350006B7118B1402303710023437143233B80D9
:105360000048F8BDAC000020F8B507460F4C82217C
:105370002046FFF7A9FB064601212046FFF7A4FBC4
:10538000054681212046FFF79FFB0EB11023B37124
:105390001DB140232B7100236B7118B140230371A1
:1053A0000023437143233B800048F8BDAC0000203C
:1053B000F8B507460F4C82212046FFF785FB0646CD
:1053C00001212046FFF780FB054681212046FFF79B
:1053D0007BFB0EB11023B3711DB100232B7102238F
:1053E0006B7118B1002303710223437143233B8087
:1053F0000048F8BDAC00002038B5D0F8D432B03346
:1054000050F8235095B10446FBF72EFBC5F80C026B
:10541000D4F8D402B03004EB80004368DB6805F5B3
:105420000371D5F804029847002038BD0320FCE73B
:10543000F8B5D0F8C862D0F8D432B03350F8234071
:1054400084B301F00F0202EB8205AB0003449B69B9
:105450004BB102EBC207BD002E44F669B3FBF6F573
:1054600006FB153393B10023C4F81432D0F8D432BC
:10547000B03300EB830043681B69ABB10A4604F507
:105480000471D4F8080298470020F8BD02EB8202AC
:105490009300034400249C6123462246FBF72BFB28
:1054A0002046F2E70320F0E70020EEE770B582B077
:1054B000D0F8D43203F1B00250F8226000228DF807
:1054C0000720ADF80420002E7ED00D460446097852
:1054D00011F0600235D0202A70D1EA885AB903F160
:1054E000B00004EB800043689B680022294668787E
:1054F0009847002066E011F0800F11D0B03300EB28
:1055000083035B689B68314668789847EA88072A76
:1055100028BF072231462046FFF79AFE002051E0BF
:105520006B7886F80032EA883F2A08D8D2B286F82B
:10553000012231462046FFF7A0FE002042E0402233
:10554000F5E76B780B2B34D8DFE803F006403333F4
:10555000333333333333162790F89C32DBB2032BCB
:1055600005D1022201A9FFF773FE00202AE0294697
:10557000FFF7E7FA032025E090F89C32DBB2032B1B
:1055800006D101220DF10701FFF762FE002019E0AC
:105590002946FFF7D6FA032014E090F89C32DBB2DC
:1055A000032B01D100200DE02946FFF7CAFA0320A2
:1055B00008E02946FFF7C5FA032003E02946FFF774
:1055C000C0FA032002B070BD0320FBE70020F9E71A
:1055D00038B504468121FBF76EFA002525870121A5
:1055E0002046FBF768FAA4F8785182212046FBF7A1
:1055F00062FAA4F84C50A4F84E50D4F8D43203F117
:10560000B00254F822209AB1B03304EB83035B68F4
:105610005B689847D4F8D432B03354F82300FBF7D2
:105620002DFAD4F8D432B03344F82350C4F8BC5225
:10563000002038BD70B504464FF40770FBF71AFA26
:10564000002848D005464FF40772002100F003F906
:10565000D4F8D432B03344F82350C4F8BC52237C7D
:10566000002B40D14FF40073022281212046FBF72A
:1056700017FA012626874FF400730222314620468E
:10568000FBF70EFAA4F878611023A4F84E30082333
:10569000032282212046FBF703FA0123A4F84C30B1
:1056A0000026C5F80462D4F8D432B03304EB830387
:1056B0005B681B689847C5F81462C5F81862D5F88E
:1056C000042262B3237C13B3402301212046FBF75D
:1056D0001AFA002070BDD4F8D432B033002244F856
:1056E00023200220F6E74023022281212046FBF7F7
:1056F000D7F9012626874023022231462046FBF7B0
:10570000CFF9A4F878611023A4F84E30BFE74FF426
:10571000007301212046FBF7F6F93046DAE7022054
:10572000D8E739B1D0F8D432B03300EB8300416010
:105730000020704703207047D0F8D432B03350F8BF
:1057400023302BB1C3F80812C3F810220020704791
:1057500003207047D0F8D432B03350F823301BB157
:10576000C3F80412002070470320704708B5D0F832
:10577000D432B03350F8232092B1037C3BB14023A4
:10578000D2F804220121FBF7BEF9002008BD4FF436
:105790000073D2F804220121FBF7B5F90020F5E7E8
:1057A0000320F3E7DFF834D0FDF7F0FE0C480D4995
:1057B0000D4A002302E0D458C4500433C4188C426C
:1057C000F9D30A4A0A4C002301E013600432A242D2
:1057D000FBD300F011F8FAF799FF704700000220A0
:1057E00000000020FC000020A0590008FC00002060
:1057F00070C10020FEE7000070B50D4E0D4CA41BDB
:10580000A4100025A54209D10B4E0C4C00F02CF839
:10581000A41BA4100025A54205D170BD56F8253063
:1058200098470135EEE756F8253098470135F2E7FD
:105830009859000898590008985900089C59000880
:1058400010B5431E0A44914200D110BD11F8014B1E
:1058500003F8014FF7E702440346934200D1704733
:1058600003F8011BF9E70000F8B500BFF8BC08BC5D
:105870009E467047F8B500BFF8BC08BC9E4670470E
:1058800010000000020000007C25002004A700207A
:10589000245900081D050008000000000000000059
:1058A000000800004C460020A0660020185900089F
:1058B0002B050008FDFF00000000000000080000AC
:1058C00004870020182500200C5900083505000821
:1058D000FDFF00000000000000080000006700203D
:1058E0009C250020005900083F050008FDFF00002E
:1058F0000000000000080000FC2500204CA700204C
:105900006D795461736B3034000000006D7954611F
:10591000736B3033000000006D795461736B30326B
:105920000000000064656661756C745461736B00FF
:1059300043444320436F6E6669670000434443203D
:10594000496E7465726661636500000053544D6969
:1059500063726F656C656374726F6E696373000068
:1059600053544D3332205669727475616C20436F05
:105970006D506F7274000000000000000000000015
:10598000010203040607080949444C4500000000D1
:0859900070A8FF7F0100000078
:04599800B50100084D
:04599C00910100086D
:1059A000190B0008250B0008C50B0008A10B000807
:1059B0008D0B0008E10B0008050C00081201000225
:1059C000020200408304405700020102030100006C
:1059D000040309041A030000000000000000000096
:1059E00000000000000000000000000000000000B7
:1059F000510C0008290C00082D0C0008350C00087B
:105A0000310C000801000000100000000024F40028
:105A1000AAAAAAAA35560008D1550008AD54000814
:105A200000000000D552000831540008F953000866
:105A3000000000000000000000000000B15300085A
:105A40006953000821530008155300080902430058
:105A5000020100C032090400000102020100052415
:105A6000001001052401000104240202052406009F
:105A7000010705820308001009040100020A000062
:105A800000070501024000000705810240000000F8
:0C5A90000A0600020000004001000000B7
:04000005080057A5F3
:00000001FF
